{
    "_format": "hh-sol-artifact-1",
    "contractName": "LW3Punks",
    "sourceName": "contracts/LW3Punks.sol",
    "abi": [
        {
            "inputs": [
                {
                    "internalType": "string",
                    "name": "baseURI",
                    "type": "string"
                }
            ],
            "stateMutability": "nonpayable",
            "type": "constructor"
        },
        {
            "anonymous": false,
            "inputs": [
                {
                    "indexed": true,
                    "internalType": "address",
                    "name": "owner",
                    "type": "address"
                },
                {
                    "indexed": true,
                    "internalType": "address",
                    "name": "approved",
                    "type": "address"
                },
                {
                    "indexed": true,
                    "internalType": "uint256",
                    "name": "tokenId",
                    "type": "uint256"
                }
            ],
            "name": "Approval",
            "type": "event"
        },
        {
            "anonymous": false,
            "inputs": [
                {
                    "indexed": true,
                    "internalType": "address",
                    "name": "owner",
                    "type": "address"
                },
                {
                    "indexed": true,
                    "internalType": "address",
                    "name": "operator",
                    "type": "address"
                },
                {
                    "indexed": false,
                    "internalType": "bool",
                    "name": "approved",
                    "type": "bool"
                }
            ],
            "name": "ApprovalForAll",
            "type": "event"
        },
        {
            "anonymous": false,
            "inputs": [
                {
                    "indexed": true,
                    "internalType": "address",
                    "name": "previousOwner",
                    "type": "address"
                },
                {
                    "indexed": true,
                    "internalType": "address",
                    "name": "newOwner",
                    "type": "address"
                }
            ],
            "name": "OwnershipTransferred",
            "type": "event"
        },
        {
            "anonymous": false,
            "inputs": [
                {
                    "indexed": true,
                    "internalType": "address",
                    "name": "from",
                    "type": "address"
                },
                {
                    "indexed": true,
                    "internalType": "address",
                    "name": "to",
                    "type": "address"
                },
                {
                    "indexed": true,
                    "internalType": "uint256",
                    "name": "tokenId",
                    "type": "uint256"
                }
            ],
            "name": "Transfer",
            "type": "event"
        },
        {
            "stateMutability": "payable",
            "type": "fallback"
        },
        {
            "inputs": [],
            "name": "_baseTokenURI",
            "outputs": [
                {
                    "internalType": "string",
                    "name": "",
                    "type": "string"
                }
            ],
            "stateMutability": "view",
            "type": "function"
        },
        {
            "inputs": [],
            "name": "_paused",
            "outputs": [
                {
                    "internalType": "bool",
                    "name": "",
                    "type": "bool"
                }
            ],
            "stateMutability": "view",
            "type": "function"
        },
        {
            "inputs": [],
            "name": "_price",
            "outputs": [
                {
                    "internalType": "uint256",
                    "name": "",
                    "type": "uint256"
                }
            ],
            "stateMutability": "view",
            "type": "function"
        },
        {
            "inputs": [
                {
                    "internalType": "address",
                    "name": "to",
                    "type": "address"
                },
                {
                    "internalType": "uint256",
                    "name": "tokenId",
                    "type": "uint256"
                }
            ],
            "name": "approve",
            "outputs": [],
            "stateMutability": "nonpayable",
            "type": "function"
        },
        {
            "inputs": [
                {
                    "internalType": "address",
                    "name": "owner",
                    "type": "address"
                }
            ],
            "name": "balanceOf",
            "outputs": [
                {
                    "internalType": "uint256",
                    "name": "",
                    "type": "uint256"
                }
            ],
            "stateMutability": "view",
            "type": "function"
        },
        {
            "inputs": [
                {
                    "internalType": "uint256",
                    "name": "tokenId",
                    "type": "uint256"
                }
            ],
            "name": "getApproved",
            "outputs": [
                {
                    "internalType": "address",
                    "name": "",
                    "type": "address"
                }
            ],
            "stateMutability": "view",
            "type": "function"
        },
        {
            "inputs": [
                {
                    "internalType": "address",
                    "name": "owner",
                    "type": "address"
                },
                {
                    "internalType": "address",
                    "name": "operator",
                    "type": "address"
                }
            ],
            "name": "isApprovedForAll",
            "outputs": [
                {
                    "internalType": "bool",
                    "name": "",
                    "type": "bool"
                }
            ],
            "stateMutability": "view",
            "type": "function"
        },
        {
            "inputs": [],
            "name": "maxTokenIds",
            "outputs": [
                {
                    "internalType": "uint256",
                    "name": "",
                    "type": "uint256"
                }
            ],
            "stateMutability": "view",
            "type": "function"
        },
        {
            "inputs": [],
            "name": "mint",
            "outputs": [],
            "stateMutability": "payable",
            "type": "function"
        },
        {
            "inputs": [],
            "name": "name",
            "outputs": [
                {
                    "internalType": "string",
                    "name": "",
                    "type": "string"
                }
            ],
            "stateMutability": "view",
            "type": "function"
        },
        {
            "inputs": [],
            "name": "owner",
            "outputs": [
                {
                    "internalType": "address",
                    "name": "",
                    "type": "address"
                }
            ],
            "stateMutability": "view",
            "type": "function"
        },
        {
            "inputs": [
                {
                    "internalType": "uint256",
                    "name": "tokenId",
                    "type": "uint256"
                }
            ],
            "name": "ownerOf",
            "outputs": [
                {
                    "internalType": "address",
                    "name": "",
                    "type": "address"
                }
            ],
            "stateMutability": "view",
            "type": "function"
        },
        {
            "inputs": [],
            "name": "renounceOwnership",
            "outputs": [],
            "stateMutability": "nonpayable",
            "type": "function"
        },
        {
            "inputs": [
                {
                    "internalType": "address",
                    "name": "from",
                    "type": "address"
                },
                {
                    "internalType": "address",
                    "name": "to",
                    "type": "address"
                },
                {
                    "internalType": "uint256",
                    "name": "tokenId",
                    "type": "uint256"
                }
            ],
            "name": "safeTransferFrom",
            "outputs": [],
            "stateMutability": "nonpayable",
            "type": "function"
        },
        {
            "inputs": [
                {
                    "internalType": "address",
                    "name": "from",
                    "type": "address"
                },
                {
                    "internalType": "address",
                    "name": "to",
                    "type": "address"
                },
                {
                    "internalType": "uint256",
                    "name": "tokenId",
                    "type": "uint256"
                },
                {
                    "internalType": "bytes",
                    "name": "_data",
                    "type": "bytes"
                }
            ],
            "name": "safeTransferFrom",
            "outputs": [],
            "stateMutability": "nonpayable",
            "type": "function"
        },
        {
            "inputs": [
                {
                    "internalType": "address",
                    "name": "operator",
                    "type": "address"
                },
                {
                    "internalType": "bool",
                    "name": "approved",
                    "type": "bool"
                }
            ],
            "name": "setApprovalForAll",
            "outputs": [],
            "stateMutability": "nonpayable",
            "type": "function"
        },
        {
            "inputs": [
                {
                    "internalType": "bool",
                    "name": "val",
                    "type": "bool"
                }
            ],
            "name": "setPaused",
            "outputs": [],
            "stateMutability": "nonpayable",
            "type": "function"
        },
        {
            "inputs": [
                {
                    "internalType": "bytes4",
                    "name": "interfaceId",
                    "type": "bytes4"
                }
            ],
            "name": "supportsInterface",
            "outputs": [
                {
                    "internalType": "bool",
                    "name": "",
                    "type": "bool"
                }
            ],
            "stateMutability": "view",
            "type": "function"
        },
        {
            "inputs": [],
            "name": "symbol",
            "outputs": [
                {
                    "internalType": "string",
                    "name": "",
                    "type": "string"
                }
            ],
            "stateMutability": "view",
            "type": "function"
        },
        {
            "inputs": [
                {
                    "internalType": "uint256",
                    "name": "index",
                    "type": "uint256"
                }
            ],
            "name": "tokenByIndex",
            "outputs": [
                {
                    "internalType": "uint256",
                    "name": "",
                    "type": "uint256"
                }
            ],
            "stateMutability": "view",
            "type": "function"
        },
        {
            "inputs": [],
            "name": "tokenIds",
            "outputs": [
                {
                    "internalType": "uint256",
                    "name": "",
                    "type": "uint256"
                }
            ],
            "stateMutability": "view",
            "type": "function"
        },
        {
            "inputs": [
                {
                    "internalType": "address",
                    "name": "owner",
                    "type": "address"
                },
                {
                    "internalType": "uint256",
                    "name": "index",
                    "type": "uint256"
                }
            ],
            "name": "tokenOfOwnerByIndex",
            "outputs": [
                {
                    "internalType": "uint256",
                    "name": "",
                    "type": "uint256"
                }
            ],
            "stateMutability": "view",
            "type": "function"
        },
        {
            "inputs": [
                {
                    "internalType": "uint256",
                    "name": "tokenId",
                    "type": "uint256"
                }
            ],
            "name": "tokenURI",
            "outputs": [
                {
                    "internalType": "string",
                    "name": "",
                    "type": "string"
                }
            ],
            "stateMutability": "view",
            "type": "function"
        },
        {
            "inputs": [],
            "name": "totalSupply",
            "outputs": [
                {
                    "internalType": "uint256",
                    "name": "",
                    "type": "uint256"
                }
            ],
            "stateMutability": "view",
            "type": "function"
        },
        {
            "inputs": [
                {
                    "internalType": "address",
                    "name": "from",
                    "type": "address"
                },
                {
                    "internalType": "address",
                    "name": "to",
                    "type": "address"
                },
                {
                    "internalType": "uint256",
                    "name": "tokenId",
                    "type": "uint256"
                }
            ],
            "name": "transferFrom",
            "outputs": [],
            "stateMutability": "nonpayable",
            "type": "function"
        },
        {
            "inputs": [
                {
                    "internalType": "address",
                    "name": "newOwner",
                    "type": "address"
                }
            ],
            "name": "transferOwnership",
            "outputs": [],
            "stateMutability": "nonpayable",
            "type": "function"
        },
        {
            "inputs": [],
            "name": "withdraw",
            "outputs": [],
            "stateMutability": "nonpayable",
            "type": "function"
        },
        {
            "stateMutability": "payable",
            "type": "receive"
        }
    ],
    "bytecode": "0x6080604052662386f26fc10000600c55600a600d553480156200002157600080fd5b50604051620040dc380380620040dc833981810160405281019062000047919062000317565b6040518060400160405280600881526020017f4c573350756e6b730000000000000000000000000000000000000000000000008152506040518060400160405280600481526020017f4c573350000000000000000000000000000000000000000000000000000000008152508160009080519060200190620000cb929190620001f5565b508060019080519060200190620000e4929190620001f5565b50505062000107620000fb6200012760201b60201c565b6200012f60201b60201c565b80600b90805190602001906200011f929190620001f5565b5050620004cc565b600033905090565b6000600a60009054906101000a900473ffffffffffffffffffffffffffffffffffffffff16905081600a60006101000a81548173ffffffffffffffffffffffffffffffffffffffff021916908373ffffffffffffffffffffffffffffffffffffffff1602179055508173ffffffffffffffffffffffffffffffffffffffff168173ffffffffffffffffffffffffffffffffffffffff167f8be0079c531659141344cd1fd0a4f28419497f9722a3daafe3b4186f6b6457e060405160405180910390a35050565b8280546200020390620003f1565b90600052602060002090601f01602090048101928262000227576000855562000273565b82601f106200024257805160ff191683800117855562000273565b8280016001018555821562000273579182015b828111156200027257825182559160200191906001019062000255565b5b50905062000282919062000286565b5090565b5b80821115620002a157600081600090555060010162000287565b5090565b6000620002bc620002b68462000385565b6200035c565b905082815260208101848484011115620002d557600080fd5b620002e2848285620003bb565b509392505050565b600082601f830112620002fc57600080fd5b81516200030e848260208601620002a5565b91505092915050565b6000602082840312156200032a57600080fd5b600082015167ffffffffffffffff8111156200034557600080fd5b6200035384828501620002ea565b91505092915050565b6000620003686200037b565b905062000376828262000427565b919050565b6000604051905090565b600067ffffffffffffffff821115620003a357620003a26200048c565b5b620003ae82620004bb565b9050602081019050919050565b60005b83811015620003db578082015181840152602081019050620003be565b83811115620003eb576000848401525b50505050565b600060028204905060018216806200040a57607f821691505b602082108114156200042157620004206200045d565b5b50919050565b6200043282620004bb565b810181811067ffffffffffffffff821117156200045457620004536200048c565b5b80604052505050565b7f4e487b7100000000000000000000000000000000000000000000000000000000600052602260045260246000fd5b7f4e487b7100000000000000000000000000000000000000000000000000000000600052604160045260246000fd5b6000601f19601f8301169050919050565b613c0080620004dc6000396000f3fe6080604052600436106101a05760003560e01c80634f6ccce7116100ec57806395d89b411161008a578063c87b56dd11610064578063c87b56dd1461059d578063cfc86f7b146105da578063e985e9c514610605578063f2fde38b14610642576101a7565b806395d89b4114610520578063a22cb4651461054b578063b88d4fde14610574576101a7565b806370a08231116100c657806370a0823114610476578063714cff56146104b3578063715018a6146104de5780638da5cb5b146104f5576101a7565b80634f6ccce7146103d15780635f7696211461040e5780636352211e14610439576101a7565b806316c61ccc1161015957806323b872dd1161013357806323b872dd1461032b5780632f745c59146103545780633ccfd60b1461039157806342842e0e146103a8576101a7565b806316c61ccc146102aa57806318160ddd146102d5578063235b6ea114610300576101a7565b806301ffc9a7146101a957806306fdde03146101e6578063081812fc14610211578063095ea7b31461024e5780631249c58b1461027757806316c38b3c14610281576101a7565b366101a757005b005b3480156101b557600080fd5b506101d060048036038101906101cb9190612993565b61066b565b6040516101dd9190612ed1565b60405180910390f35b3480156101f257600080fd5b506101fb6106e5565b6040516102089190612eec565b60405180910390f35b34801561021d57600080fd5b50610238600480360381019061023391906129e5565b610777565b6040516102459190612e6a565b60405180910390f35b34801561025a57600080fd5b506102756004803603810190610270919061292e565b6107fc565b005b61027f610914565b005b34801561028d57600080fd5b506102a860048036038101906102a3919061296a565b610a17565b005b3480156102b657600080fd5b506102bf610ab0565b6040516102cc9190612ed1565b60405180910390f35b3480156102e157600080fd5b506102ea610ac3565b6040516102f791906131ce565b60405180910390f35b34801561030c57600080fd5b50610315610ad0565b60405161032291906131ce565b60405180910390f35b34801561033757600080fd5b50610352600480360381019061034d9190612828565b610ad6565b005b34801561036057600080fd5b5061037b6004803603810190610376919061292e565b610b36565b60405161038891906131ce565b60405180910390f35b34801561039d57600080fd5b506103a6610bdb565b005b3480156103b457600080fd5b506103cf60048036038101906103ca9190612828565b610d19565b005b3480156103dd57600080fd5b506103f860048036038101906103f391906129e5565b610d39565b60405161040591906131ce565b60405180910390f35b34801561041a57600080fd5b50610423610dd0565b60405161043091906131ce565b60405180910390f35b34801561044557600080fd5b50610460600480360381019061045b91906129e5565b610dd6565b60405161046d9190612e6a565b60405180910390f35b34801561048257600080fd5b5061049d600480360381019061049891906127c3565b610e88565b6040516104aa91906131ce565b60405180910390f35b3480156104bf57600080fd5b506104c8610f40565b6040516104d591906131ce565b60405180910390f35b3480156104ea57600080fd5b506104f3610f46565b005b34801561050157600080fd5b5061050a610fce565b6040516105179190612e6a565b60405180910390f35b34801561052c57600080fd5b50610535610ff8565b6040516105429190612eec565b60405180910390f35b34801561055757600080fd5b50610572600480360381019061056d91906128f2565b61108a565b005b34801561058057600080fd5b5061059b60048036038101906105969190612877565b6110a0565b005b3480156105a957600080fd5b506105c460048036038101906105bf91906129e5565b611102565b6040516105d19190612eec565b60405180910390f35b3480156105e657600080fd5b506105ef6111a9565b6040516105fc9190612eec565b60405180910390f35b34801561061157600080fd5b5061062c600480360381019061062791906127ec565b611237565b6040516106399190612ed1565b60405180910390f35b34801561064e57600080fd5b50610669600480360381019061066491906127c3565b6112cb565b005b60007f780e9d63000000000000000000000000000000000000000000000000000000007bffffffffffffffffffffffffffffffffffffffffffffffffffffffff1916827bffffffffffffffffffffffffffffffffffffffffffffffffffffffff191614806106de57506106dd826113c3565b5b9050919050565b6060600080546106f4906133fe565b80601f0160208091040260200160405190810160405280929190818152602001828054610720906133fe565b801561076d5780601f106107425761010080835404028352916020019161076d565b820191906000526020600020905b81548152906001019060200180831161075057829003601f168201915b5050505050905090565b6000610782826114a5565b6107c1576040517f08c379a00000000000000000000000000000000000000000000000000000000081526004016107b8906130ae565b60405180910390fd5b6004600083815260200190815260200160002060009054906101000a900473ffffffffffffffffffffffffffffffffffffffff169050919050565b600061080782610dd6565b90508073ffffffffffffffffffffffffffffffffffffffff168373ffffffffffffffffffffffffffffffffffffffff161415610878576040517f08c379a000000000000000000000000000000000000000000000000000000000815260040161086f9061312e565b60405180910390fd5b8073ffffffffffffffffffffffffffffffffffffffff16610897611511565b73ffffffffffffffffffffffffffffffffffffffff1614806108c657506108c5816108c0611511565b611237565b5b610905576040517f08c379a00000000000000000000000000000000000000000000000000000000081526004016108fc9061302e565b60405180910390fd5b61090f8383611519565b505050565b600f60009054906101000a900460ff1615610964576040517f08c379a000000000000000000000000000000000000000000000000000000000815260040161095b9061310e565b60405180910390fd5b600d54600e54106109aa576040517f08c379a00000000000000000000000000000000000000000000000000000000081526004016109a1906131ae565b60405180910390fd5b600c543410156109ef576040517f08c379a00000000000000000000000000000000000000000000000000000000081526004016109e69061314e565b60405180910390fd5b6001600e6000828254610a02919061328d565b92505081905550610a1533600e546115d2565b565b610a1f611511565b73ffffffffffffffffffffffffffffffffffffffff16610a3d610fce565b73ffffffffffffffffffffffffffffffffffffffff1614610a93576040517f08c379a0000000000000000000000000000000000000000000000000000000008152600401610a8a906130ce565b60405180910390fd5b80600f60006101000a81548160ff02191690831515021790555050565b600f60009054906101000a900460ff1681565b6000600880549050905090565b600c5481565b610ae7610ae1611511565b826115f0565b610b26576040517f08c379a0000000000000000000000000000000000000000000000000000000008152600401610b1d9061316e565b60405180910390fd5b610b318383836116ce565b505050565b6000610b4183610e88565b8210610b82576040517f08c379a0000000000000000000000000000000000000000000000000000000008152600401610b7990612f0e565b60405180910390fd5b600660008473ffffffffffffffffffffffffffffffffffffffff1673ffffffffffffffffffffffffffffffffffffffff168152602001908152602001600020600083815260200190815260200160002054905092915050565b610be3611511565b73ffffffffffffffffffffffffffffffffffffffff16610c01610fce565b73ffffffffffffffffffffffffffffffffffffffff1614610c57576040517f08c379a0000000000000000000000000000000000000000000000000000000008152600401610c4e906130ce565b60405180910390fd5b6000610c61610fce565b9050600047905060008273ffffffffffffffffffffffffffffffffffffffff1682604051610c8e90612e55565b60006040518083038185875af1925050503d8060008114610ccb576040519150601f19603f3d011682016040523d82523d6000602084013e610cd0565b606091505b5050905080610d14576040517f08c379a0000000000000000000000000000000000000000000000000000000008152600401610d0b90612fae565b60405180910390fd5b505050565b610d34838383604051806020016040528060008152506110a0565b505050565b6000610d43610ac3565b8210610d84576040517f08c379a0000000000000000000000000000000000000000000000000000000008152600401610d7b9061318e565b60405180910390fd5b60088281548110610dbe577f4e487b7100000000000000000000000000000000000000000000000000000000600052603260045260246000fd5b90600052602060002001549050919050565b600d5481565b6000806002600084815260200190815260200160002060009054906101000a900473ffffffffffffffffffffffffffffffffffffffff169050600073ffffffffffffffffffffffffffffffffffffffff168173ffffffffffffffffffffffffffffffffffffffff161415610e7f576040517f08c379a0000000000000000000000000000000000000000000000000000000008152600401610e769061306e565b60405180910390fd5b80915050919050565b60008073ffffffffffffffffffffffffffffffffffffffff168273ffffffffffffffffffffffffffffffffffffffff161415610ef9576040517f08c379a0000000000000000000000000000000000000000000000000000000008152600401610ef09061304e565b60405180910390fd5b600360008373ffffffffffffffffffffffffffffffffffffffff1673ffffffffffffffffffffffffffffffffffffffff168152602001908152602001600020549050919050565b600e5481565b610f4e611511565b73ffffffffffffffffffffffffffffffffffffffff16610f6c610fce565b73ffffffffffffffffffffffffffffffffffffffff1614610fc2576040517f08c379a0000000000000000000000000000000000000000000000000000000008152600401610fb9906130ce565b60405180910390fd5b610fcc6000611935565b565b6000600a60009054906101000a900473ffffffffffffffffffffffffffffffffffffffff16905090565b606060018054611007906133fe565b80601f0160208091040260200160405190810160405280929190818152602001828054611033906133fe565b80156110805780601f1061105557610100808354040283529160200191611080565b820191906000526020600020905b81548152906001019060200180831161106357829003601f168201915b5050505050905090565b61109c611095611511565b83836119fb565b5050565b6110b16110ab611511565b836115f0565b6110f0576040517f08c379a00000000000000000000000000000000000000000000000000000000081526004016110e79061316e565b60405180910390fd5b6110fc84848484611b68565b50505050565b606061110d826114a5565b61114c576040517f08c379a0000000000000000000000000000000000000000000000000000000008152600401611143906130ee565b60405180910390fd5b6000611156611bc4565b9050600081511161117657604051806020016040528060008152506111a1565b8061118084611c56565b604051602001611191929190612e26565b6040516020818303038152906040525b915050919050565b600b80546111b6906133fe565b80601f01602080910402602001604051908101604052809291908181526020018280546111e2906133fe565b801561122f5780601f106112045761010080835404028352916020019161122f565b820191906000526020600020905b81548152906001019060200180831161121257829003601f168201915b505050505081565b6000600560008473ffffffffffffffffffffffffffffffffffffffff1673ffffffffffffffffffffffffffffffffffffffff16815260200190815260200160002060008373ffffffffffffffffffffffffffffffffffffffff1673ffffffffffffffffffffffffffffffffffffffff16815260200190815260200160002060009054906101000a900460ff16905092915050565b6112d3611511565b73ffffffffffffffffffffffffffffffffffffffff166112f1610fce565b73ffffffffffffffffffffffffffffffffffffffff1614611347576040517f08c379a000000000000000000000000000000000000000000000000000000000815260040161133e906130ce565b60405180910390fd5b600073ffffffffffffffffffffffffffffffffffffffff168173ffffffffffffffffffffffffffffffffffffffff1614156113b7576040517f08c379a00000000000000000000000000000000000000000000000000000000081526004016113ae90612f4e565b60405180910390fd5b6113c081611935565b50565b60007f80ac58cd000000000000000000000000000000000000000000000000000000007bffffffffffffffffffffffffffffffffffffffffffffffffffffffff1916827bffffffffffffffffffffffffffffffffffffffffffffffffffffffff1916148061148e57507f5b5e139f000000000000000000000000000000000000000000000000000000007bffffffffffffffffffffffffffffffffffffffffffffffffffffffff1916827bffffffffffffffffffffffffffffffffffffffffffffffffffffffff1916145b8061149e575061149d82611e03565b5b9050919050565b60008073ffffffffffffffffffffffffffffffffffffffff166002600084815260200190815260200160002060009054906101000a900473ffffffffffffffffffffffffffffffffffffffff1673ffffffffffffffffffffffffffffffffffffffff1614159050919050565b600033905090565b816004600083815260200190815260200160002060006101000a81548173ffffffffffffffffffffffffffffffffffffffff021916908373ffffffffffffffffffffffffffffffffffffffff160217905550808273ffffffffffffffffffffffffffffffffffffffff1661158c83610dd6565b73ffffffffffffffffffffffffffffffffffffffff167f8c5be1e5ebec7d5bd14f71427d1e84f3dd0314c0f7b2291e5b200ac8c7c3b92560405160405180910390a45050565b6115ec828260405180602001604052806000815250611e6d565b5050565b60006115fb826114a5565b61163a576040517f08c379a00000000000000000000000000000000000000000000000000000000081526004016116319061300e565b60405180910390fd5b600061164583610dd6565b90508073ffffffffffffffffffffffffffffffffffffffff168473ffffffffffffffffffffffffffffffffffffffff16148061168757506116868185611237565b5b806116c557508373ffffffffffffffffffffffffffffffffffffffff166116ad84610777565b73ffffffffffffffffffffffffffffffffffffffff16145b91505092915050565b8273ffffffffffffffffffffffffffffffffffffffff166116ee82610dd6565b73ffffffffffffffffffffffffffffffffffffffff1614611744576040517f08c379a000000000000000000000000000000000000000000000000000000000815260040161173b90612f6e565b60405180910390fd5b600073ffffffffffffffffffffffffffffffffffffffff168273ffffffffffffffffffffffffffffffffffffffff1614156117b4576040517f08c379a00000000000000000000000000000000000000000000000000000000081526004016117ab90612fce565b60405180910390fd5b6117bf838383611ec8565b6117ca600082611519565b6001600360008573ffffffffffffffffffffffffffffffffffffffff1673ffffffffffffffffffffffffffffffffffffffff168152602001908152602001600020600082825461181a9190613314565b925050819055506001600360008473ffffffffffffffffffffffffffffffffffffffff1673ffffffffffffffffffffffffffffffffffffffff1681526020019081526020016000206000828254611871919061328d565b92505081905550816002600083815260200190815260200160002060006101000a81548173ffffffffffffffffffffffffffffffffffffffff021916908373ffffffffffffffffffffffffffffffffffffffff160217905550808273ffffffffffffffffffffffffffffffffffffffff168473ffffffffffffffffffffffffffffffffffffffff167fddf252ad1be2c89b69c2b068fc378daa952ba7f163c4a11628f55a4df523b3ef60405160405180910390a4611930838383611fdc565b505050565b6000600a60009054906101000a900473ffffffffffffffffffffffffffffffffffffffff16905081600a60006101000a81548173ffffffffffffffffffffffffffffffffffffffff021916908373ffffffffffffffffffffffffffffffffffffffff1602179055508173ffffffffffffffffffffffffffffffffffffffff168173ffffffffffffffffffffffffffffffffffffffff167f8be0079c531659141344cd1fd0a4f28419497f9722a3daafe3b4186f6b6457e060405160405180910390a35050565b8173ffffffffffffffffffffffffffffffffffffffff168373ffffffffffffffffffffffffffffffffffffffff161415611a6a576040517f08c379a0000000000000000000000000000000000000000000000000000000008152600401611a6190612fee565b60405180910390fd5b80600560008573ffffffffffffffffffffffffffffffffffffffff1673ffffffffffffffffffffffffffffffffffffffff16815260200190815260200160002060008473ffffffffffffffffffffffffffffffffffffffff1673ffffffffffffffffffffffffffffffffffffffff16815260200190815260200160002060006101000a81548160ff0219169083151502179055508173ffffffffffffffffffffffffffffffffffffffff168373ffffffffffffffffffffffffffffffffffffffff167f17307eab39ab6107e8899845ad3d59bd9653f200f220920489ca2b5937696c3183604051611b5b9190612ed1565b60405180910390a3505050565b611b738484846116ce565b611b7f84848484611fe1565b611bbe576040517f08c379a0000000000000000000000000000000000000000000000000000000008152600401611bb590612f2e565b60405180910390fd5b50505050565b6060600b8054611bd3906133fe565b80601f0160208091040260200160405190810160405280929190818152602001828054611bff906133fe565b8015611c4c5780601f10611c2157610100808354040283529160200191611c4c565b820191906000526020600020905b815481529060010190602001808311611c2f57829003601f168201915b5050505050905090565b60606000821415611c9e576040518060400160405280600181526020017f30000000000000000000000000000000000000000000000000000000000000008152509050611dfe565b600082905060005b60008214611cd0578080611cb990613461565b915050600a82611cc991906132e3565b9150611ca6565b60008167ffffffffffffffff811115611d12577f4e487b7100000000000000000000000000000000000000000000000000000000600052604160045260246000fd5b6040519080825280601f01601f191660200182016040528015611d445781602001600182028036833780820191505090505b5090505b60008514611df757600182611d5d9190613314565b9150600a85611d6c91906134aa565b6030611d78919061328d565b60f81b818381518110611db4577f4e487b7100000000000000000000000000000000000000000000000000000000600052603260045260246000fd5b60200101907effffffffffffffffffffffffffffffffffffffffffffffffffffffffffffff1916908160001a905350600a85611df091906132e3565b9450611d48565b8093505050505b919050565b60007f01ffc9a7000000000000000000000000000000000000000000000000000000007bffffffffffffffffffffffffffffffffffffffffffffffffffffffff1916827bffffffffffffffffffffffffffffffffffffffffffffffffffffffff1916149050919050565b611e778383612178565b611e846000848484611fe1565b611ec3576040517f08c379a0000000000000000000000000000000000000000000000000000000008152600401611eba90612f2e565b60405180910390fd5b505050565b611ed3838383612352565b600073ffffffffffffffffffffffffffffffffffffffff168373ffffffffffffffffffffffffffffffffffffffff161415611f1657611f1181612357565b611f55565b8173ffffffffffffffffffffffffffffffffffffffff168373ffffffffffffffffffffffffffffffffffffffff1614611f5457611f5383826123a0565b5b5b600073ffffffffffffffffffffffffffffffffffffffff168273ffffffffffffffffffffffffffffffffffffffff161415611f9857611f938161250d565b611fd7565b8273ffffffffffffffffffffffffffffffffffffffff168273ffffffffffffffffffffffffffffffffffffffff1614611fd657611fd58282612650565b5b5b505050565b505050565b60006120028473ffffffffffffffffffffffffffffffffffffffff166126cf565b1561216b578373ffffffffffffffffffffffffffffffffffffffff1663150b7a0261202b611511565b8786866040518563ffffffff1660e01b815260040161204d9493929190612e85565b602060405180830381600087803b15801561206757600080fd5b505af192505050801561209857506040513d601f19601f8201168201806040525081019061209591906129bc565b60015b61211b573d80600081146120c8576040519150601f19603f3d011682016040523d82523d6000602084013e6120cd565b606091505b50600081511415612113576040517f08c379a000000000000000000000000000000000000000000000000000000000815260040161210a90612f2e565b60405180910390fd5b805181602001fd5b63150b7a0260e01b7bffffffffffffffffffffffffffffffffffffffffffffffffffffffff1916817bffffffffffffffffffffffffffffffffffffffffffffffffffffffff191614915050612170565b600190505b949350505050565b600073ffffffffffffffffffffffffffffffffffffffff168273ffffffffffffffffffffffffffffffffffffffff1614156121e8576040517f08c379a00000000000000000000000000000000000000000000000000000000081526004016121df9061308e565b60405180910390fd5b6121f1816114a5565b15612231576040517f08c379a000000000000000000000000000000000000000000000000000000000815260040161222890612f8e565b60405180910390fd5b61223d60008383611ec8565b6001600360008473ffffffffffffffffffffffffffffffffffffffff1673ffffffffffffffffffffffffffffffffffffffff168152602001908152602001600020600082825461228d919061328d565b92505081905550816002600083815260200190815260200160002060006101000a81548173ffffffffffffffffffffffffffffffffffffffff021916908373ffffffffffffffffffffffffffffffffffffffff160217905550808273ffffffffffffffffffffffffffffffffffffffff16600073ffffffffffffffffffffffffffffffffffffffff167fddf252ad1be2c89b69c2b068fc378daa952ba7f163c4a11628f55a4df523b3ef60405160405180910390a461234e60008383611fdc565b5050565b505050565b6008805490506009600083815260200190815260200160002081905550600881908060018154018082558091505060019003906000526020600020016000909190919091505550565b600060016123ad84610e88565b6123b79190613314565b905060006007600084815260200190815260200160002054905081811461249c576000600660008673ffffffffffffffffffffffffffffffffffffffff1673ffffffffffffffffffffffffffffffffffffffff168152602001908152602001600020600084815260200190815260200160002054905080600660008773ffffffffffffffffffffffffffffffffffffffff1673ffffffffffffffffffffffffffffffffffffffff168152602001908152602001600020600084815260200190815260200160002081905550816007600083815260200190815260200160002081905550505b6007600084815260200190815260200160002060009055600660008573ffffffffffffffffffffffffffffffffffffffff1673ffffffffffffffffffffffffffffffffffffffff16815260200190815260200160002060008381526020019081526020016000206000905550505050565b600060016008805490506125219190613314565b9050600060096000848152602001908152602001600020549050600060088381548110612577577f4e487b7100000000000000000000000000000000000000000000000000000000600052603260045260246000fd5b9060005260206000200154905080600883815481106125bf577f4e487b7100000000000000000000000000000000000000000000000000000000600052603260045260246000fd5b906000526020600020018190555081600960008381526020019081526020016000208190555060096000858152602001908152602001600020600090556008805480612634577f4e487b7100000000000000000000000000000000000000000000000000000000600052603160045260246000fd5b6001900381819060005260206000200160009055905550505050565b600061265b83610e88565b905081600660008573ffffffffffffffffffffffffffffffffffffffff1673ffffffffffffffffffffffffffffffffffffffff168152602001908152602001600020600083815260200190815260200160002081905550806007600084815260200190815260200160002081905550505050565b6000808273ffffffffffffffffffffffffffffffffffffffff163b119050919050565b60006127056127008461320e565b6131e9565b90508281526020810184848401111561271d57600080fd5b6127288482856133bc565b509392505050565b60008135905061273f81613b6e565b92915050565b60008135905061275481613b85565b92915050565b60008135905061276981613b9c565b92915050565b60008151905061277e81613b9c565b92915050565b600082601f83011261279557600080fd5b81356127a58482602086016126f2565b91505092915050565b6000813590506127bd81613bb3565b92915050565b6000602082840312156127d557600080fd5b60006127e384828501612730565b91505092915050565b600080604083850312156127ff57600080fd5b600061280d85828601612730565b925050602061281e85828601612730565b9150509250929050565b60008060006060848603121561283d57600080fd5b600061284b86828701612730565b935050602061285c86828701612730565b925050604061286d868287016127ae565b9150509250925092565b6000806000806080858703121561288d57600080fd5b600061289b87828801612730565b94505060206128ac87828801612730565b93505060406128bd878288016127ae565b925050606085013567ffffffffffffffff8111156128da57600080fd5b6128e687828801612784565b91505092959194509250565b6000806040838503121561290557600080fd5b600061291385828601612730565b925050602061292485828601612745565b9150509250929050565b6000806040838503121561294157600080fd5b600061294f85828601612730565b9250506020612960858286016127ae565b9150509250929050565b60006020828403121561297c57600080fd5b600061298a84828501612745565b91505092915050565b6000602082840312156129a557600080fd5b60006129b38482850161275a565b91505092915050565b6000602082840312156129ce57600080fd5b60006129dc8482850161276f565b91505092915050565b6000602082840312156129f757600080fd5b6000612a05848285016127ae565b91505092915050565b612a1781613348565b82525050565b612a268161335a565b82525050565b6000612a378261323f565b612a418185613255565b9350612a518185602086016133cb565b612a5a81613597565b840191505092915050565b6000612a708261324a565b612a7a8185613271565b9350612a8a8185602086016133cb565b612a9381613597565b840191505092915050565b6000612aa98261324a565b612ab38185613282565b9350612ac38185602086016133cb565b80840191505092915050565b6000612adc602b83613271565b9150612ae7826135a8565b604082019050919050565b6000612aff603283613271565b9150612b0a826135f7565b604082019050919050565b6000612b22602683613271565b9150612b2d82613646565b604082019050919050565b6000612b45602583613271565b9150612b5082613695565b604082019050919050565b6000612b68601c83613271565b9150612b73826136e4565b602082019050919050565b6000612b8b601483613271565b9150612b968261370d565b602082019050919050565b6000612bae602483613271565b9150612bb982613736565b604082019050919050565b6000612bd1601983613271565b9150612bdc82613785565b602082019050919050565b6000612bf4602c83613271565b9150612bff826137ae565b604082019050919050565b6000612c17603883613271565b9150612c22826137fd565b604082019050919050565b6000612c3a602a83613271565b9150612c458261384c565b604082019050919050565b6000612c5d602983613271565b9150612c688261389b565b604082019050919050565b6000612c80602083613271565b9150612c8b826138ea565b602082019050919050565b6000612ca3602c83613271565b9150612cae82613913565b604082019050919050565b6000612cc6600583613282565b9150612cd182613962565b600582019050919050565b6000612ce9602083613271565b9150612cf48261398b565b602082019050919050565b6000612d0c602f83613271565b9150612d17826139b4565b604082019050919050565b6000612d2f601983613271565b9150612d3a82613a03565b602082019050919050565b6000612d52602183613271565b9150612d5d82613a2c565b604082019050919050565b6000612d75601983613271565b9150612d8082613a7b565b602082019050919050565b6000612d98600083613266565b9150612da382613aa4565b600082019050919050565b6000612dbb603183613271565b9150612dc682613aa7565b604082019050919050565b6000612dde602c83613271565b9150612de982613af6565b604082019050919050565b6000612e01601e83613271565b9150612e0c82613b45565b602082019050919050565b612e20816133b2565b82525050565b6000612e328285612a9e565b9150612e3e8284612a9e565b9150612e4982612cb9565b91508190509392505050565b6000612e6082612d8b565b9150819050919050565b6000602082019050612e7f6000830184612a0e565b92915050565b6000608082019050612e9a6000830187612a0e565b612ea76020830186612a0e565b612eb46040830185612e17565b8181036060830152612ec68184612a2c565b905095945050505050565b6000602082019050612ee66000830184612a1d565b92915050565b60006020820190508181036000830152612f068184612a65565b905092915050565b60006020820190508181036000830152612f2781612acf565b9050919050565b60006020820190508181036000830152612f4781612af2565b9050919050565b60006020820190508181036000830152612f6781612b15565b9050919050565b60006020820190508181036000830152612f8781612b38565b9050919050565b60006020820190508181036000830152612fa781612b5b565b9050919050565b60006020820190508181036000830152612fc781612b7e565b9050919050565b60006020820190508181036000830152612fe781612ba1565b9050919050565b6000602082019050818103600083015261300781612bc4565b9050919050565b6000602082019050818103600083015261302781612be7565b9050919050565b6000602082019050818103600083015261304781612c0a565b9050919050565b6000602082019050818103600083015261306781612c2d565b9050919050565b6000602082019050818103600083015261308781612c50565b9050919050565b600060208201905081810360008301526130a781612c73565b9050919050565b600060208201905081810360008301526130c781612c96565b9050919050565b600060208201905081810360008301526130e781612cdc565b9050919050565b6000602082019050818103600083015261310781612cff565b9050919050565b6000602082019050818103600083015261312781612d22565b9050919050565b6000602082019050818103600083015261314781612d45565b9050919050565b6000602082019050818103600083015261316781612d68565b9050919050565b6000602082019050818103600083015261318781612dae565b9050919050565b600060208201905081810360008301526131a781612dd1565b9050919050565b600060208201905081810360008301526131c781612df4565b9050919050565b60006020820190506131e36000830184612e17565b92915050565b60006131f3613204565b90506131ff8282613430565b919050565b6000604051905090565b600067ffffffffffffffff82111561322957613228613568565b5b61323282613597565b9050602081019050919050565b600081519050919050565b600081519050919050565b600082825260208201905092915050565b600081905092915050565b600082825260208201905092915050565b600081905092915050565b6000613298826133b2565b91506132a3836133b2565b9250827fffffffffffffffffffffffffffffffffffffffffffffffffffffffffffffffff038211156132d8576132d76134db565b5b828201905092915050565b60006132ee826133b2565b91506132f9836133b2565b9250826133095761330861350a565b5b828204905092915050565b600061331f826133b2565b915061332a836133b2565b92508282101561333d5761333c6134db565b5b828203905092915050565b600061335382613392565b9050919050565b60008115159050919050565b60007fffffffff0000000000000000000000000000000000000000000000000000000082169050919050565b600073ffffffffffffffffffffffffffffffffffffffff82169050919050565b6000819050919050565b82818337600083830152505050565b60005b838110156133e95780820151818401526020810190506133ce565b838111156133f8576000848401525b50505050565b6000600282049050600182168061341657607f821691505b6020821081141561342a57613429613539565b5b50919050565b61343982613597565b810181811067ffffffffffffffff8211171561345857613457613568565b5b80604052505050565b600061346c826133b2565b91507fffffffffffffffffffffffffffffffffffffffffffffffffffffffffffffffff82141561349f5761349e6134db565b5b600182019050919050565b60006134b5826133b2565b91506134c0836133b2565b9250826134d0576134cf61350a565b5b828206905092915050565b7f4e487b7100000000000000000000000000000000000000000000000000000000600052601160045260246000fd5b7f4e487b7100000000000000000000000000000000000000000000000000000000600052601260045260246000fd5b7f4e487b7100000000000000000000000000000000000000000000000000000000600052602260045260246000fd5b7f4e487b7100000000000000000000000000000000000000000000000000000000600052604160045260246000fd5b6000601f19601f8301169050919050565b7f455243373231456e756d657261626c653a206f776e657220696e646578206f7560008201527f74206f6620626f756e6473000000000000000000000000000000000000000000602082015250565b7f4552433732313a207472616e7366657220746f206e6f6e20455243373231526560008201527f63656976657220696d706c656d656e7465720000000000000000000000000000602082015250565b7f4f776e61626c653a206e6577206f776e657220697320746865207a65726f206160008201527f6464726573730000000000000000000000000000000000000000000000000000602082015250565b7f4552433732313a207472616e736665722066726f6d20696e636f72726563742060008201527f6f776e6572000000000000000000000000000000000000000000000000000000602082015250565b7f4552433732313a20746f6b656e20616c7265616479206d696e74656400000000600082015250565b7f4661696c656420746f2073656e64204574686572000000000000000000000000600082015250565b7f4552433732313a207472616e7366657220746f20746865207a65726f2061646460008201527f7265737300000000000000000000000000000000000000000000000000000000602082015250565b7f4552433732313a20617070726f766520746f2063616c6c657200000000000000600082015250565b7f4552433732313a206f70657261746f7220717565727920666f72206e6f6e657860008201527f697374656e7420746f6b656e0000000000000000000000000000000000000000602082015250565b7f4552433732313a20617070726f76652063616c6c6572206973206e6f74206f7760008201527f6e6572206e6f7220617070726f76656420666f7220616c6c0000000000000000602082015250565b7f4552433732313a2062616c616e636520717565727920666f7220746865207a6560008201527f726f206164647265737300000000000000000000000000000000000000000000602082015250565b7f4552433732313a206f776e657220717565727920666f72206e6f6e657869737460008201527f656e7420746f6b656e0000000000000000000000000000000000000000000000602082015250565b7f4552433732313a206d696e7420746f20746865207a65726f2061646472657373600082015250565b7f4552433732313a20617070726f76656420717565727920666f72206e6f6e657860008201527f697374656e7420746f6b656e0000000000000000000000000000000000000000602082015250565b7f2e6a736f6e000000000000000000000000000000000000000000000000000000600082015250565b7f4f776e61626c653a2063616c6c6572206973206e6f7420746865206f776e6572600082015250565b7f4552433732314d657461646174613a2055524920717565727920666f72206e6f60008201527f6e6578697374656e7420746f6b656e0000000000000000000000000000000000602082015250565b7f436f6e74726163742063757272656e746c792070617573656400000000000000600082015250565b7f4552433732313a20617070726f76616c20746f2063757272656e74206f776e6560008201527f7200000000000000000000000000000000000000000000000000000000000000602082015250565b7f45746865722073656e74206973206e6f7420636f727265637400000000000000600082015250565b50565b7f4552433732313a207472616e736665722063616c6c6572206973206e6f74206f60008201527f776e6572206e6f7220617070726f766564000000000000000000000000000000602082015250565b7f455243373231456e756d657261626c653a20676c6f62616c20696e646578206f60008201527f7574206f6620626f756e64730000000000000000000000000000000000000000602082015250565b7f457863656564206d6178696d756d204c573350756e6b7320737570706c790000600082015250565b613b7781613348565b8114613b8257600080fd5b50565b613b8e8161335a565b8114613b9957600080fd5b50565b613ba581613366565b8114613bb057600080fd5b50565b613bbc816133b2565b8114613bc757600080fd5b5056fea2646970667358221220e6c827a04b567a2aa7cb1e52fc15e08777ae549cae59a7037bff3645aa950bc364736f6c63430008040033",
    "linkReferences": {},
    "deployedLinkReferences": {}
}